{
  "address": "0xd3c31047E4622EA0c804cdB11338D6e100D3bCF6",
  "abi": [
    {
      "inputs": [
        {
          "internalType": "contract SmartWalletFactory",
          "name": "_factory",
          "type": "address"
        }
      ],
      "stateMutability": "nonpayable",
      "type": "constructor"
    },
    {
      "inputs": [
        {
          "internalType": "address",
          "name": "_owner",
          "type": "address"
        }
      ],
      "name": "createWallet",
      "outputs": [
        {
          "internalType": "contract IWallet",
          "name": "",
          "type": "address"
        }
      ],
      "stateMutability": "nonpayable",
      "type": "function"
    },
    {
      "inputs": [
        {
          "internalType": "address",
          "name": "_owner",
          "type": "address"
        },
        {
          "internalType": "uint256",
          "name": "_nonce",
          "type": "uint256"
        }
      ],
      "name": "walletAddress",
      "outputs": [
        {
          "internalType": "address",
          "name": "",
          "type": "address"
        }
      ],
      "stateMutability": "view",
      "type": "function"
    }
  ],
  "transactionHash": "0x9ef7ce8d8e4906875d99ec5fe49acf59101969072ccddf9b025dc14f104652a3",
  "args": [
    "0xbB762D0cC2E926a30a5f0EdE1A6146D1ee31BE86"
  ],
  "numDeployments": 1,
  "solcInputHash": "5ce605a90f9263b5de56b7f1e75f5308",
  "bytecode": "0x608060405234801561001057600080fd5b5060405161235238038061235283398101604081905261002f916100fa565b60405161003b906100ed565b604051809103906000f080158015610057573d6000803e3d6000fd5b50600180546001600160a01b0319166001600160a01b03929092169182179055604051636fc0109960e11b81526000600482015263df80213290602401600060405180830381600087803b1580156100ae57600080fd5b505af11580156100c2573d6000803e3d6000fd5b5050600080546001600160a01b0319166001600160a01b0394909416939093179092555061012a9050565b611e79806104d983390190565b60006020828403121561010c57600080fd5b81516001600160a01b038116811461012357600080fd5b9392505050565b6103a0806101396000396000f3fe608060405234801561001057600080fd5b50600436106100365760003560e01c80631238ac7c1461003b578063b054a9e81461006a575b600080fd5b61004e610049366004610262565b61007d565b6040516001600160a01b03909116815260200160405180910390f35b61004e61007836600461028e565b610164565b60008054600154604080516001600160a01b0387811660248084019190915283518084039091018152604490920183526020820180517bffffffffffffffffffffffffffffffffffffffffffffffffffffffff16636fc0109960e11b17905291517fd1e64ad70000000000000000000000000000000000000000000000000000000081529382169363d1e64ad79361011c9316919087906004016102f1565b602060405180830381865afa158015610139573d6000803e3d6000fd5b505050506040513d601f19601f8201168201806040525081019061015d9190610323565b9392505050565b60008054600154604080516001600160a01b0386811660248084019190915283518084039091018152604490920183526020820180517bffffffffffffffffffffffffffffffffffffffffffffffffffffffff16636fc0109960e11b17905291517feebc8e190000000000000000000000000000000000000000000000000000000081529382169363eebc8e199361020193169190600401610340565b6020604051808303816000875af1158015610220573d6000803e3d6000fd5b505050506040513d601f19601f820116820180604052508101906102449190610323565b92915050565b6001600160a01b038116811461025f57600080fd5b50565b6000806040838503121561027557600080fd5b82356102808161024a565b946020939093013593505050565b6000602082840312156102a057600080fd5b813561015d8161024a565b6000815180845260005b818110156102d1576020818501810151868301820152016102b5565b506000602082860101526020601f19601f83011685010191505092915050565b6001600160a01b038416815260606020820152600061031360608301856102ab565b9050826040830152949350505050565b60006020828403121561033557600080fd5b815161015d8161024a565b6001600160a01b038316815260406020820152600061036260408301846102ab565b94935050505056fea2646970667358221220b98f67bc437e77b007dd55cb66cd082f690ecf92ec00e8e62710736f1a7f433264736f6c6343000811003360a06040523060805234801561001457600080fd5b50608051611e2d61004c600039600081816103000152818161038a01528181610457015281816104dc015261059d0152611e2d6000f3fe60806040526004361061009a5760003560e01c806372d87c8f116100695780638da5cb5b1161004e5780638da5cb5b14610260578063affed0e01461028d578063df802132146102d657600080fd5b806372d87c8f1461022b5780638901e25b1461024b57600080fd5b8063252f5a17146100db5780633659cfe6146101e15780634f1ef2861461020357806352d1902d1461021657600080fd5b366100d65760405134815233907f3317af6e3247959c45cb6051f9153437a9072683e21eda1f9b52c5bcec0e89c29060200160405180910390a2005b600080fd5b3480156100e757600080fd5b506101ce6100f6366004611829565b604080518082018252600b81526a1150d114d055d85b1b195d60aa1b602091820152815180830183526005815264302e302e3160d81b9082015281517f8b73c3c69bb8fe3d512ecc4cf759cc79239f7b179b0ffacaa9a75d522b39400f818301527fa493ff226186ed9712809d71f428d7f274876a4f2b9236f1762ec84b059ae32b818401527fae209a0b48f21c054280f2455d32cf309387644879d9acbd8ffc199163811885606082015260808101939093523060a0808501919091528251808503909101815260c0909301909152815191012090565b6040519081526020015b60405180910390f35b3480156101ed57600080fd5b506102016101fc36600461185e565b6102f6565b005b610201610211366004611967565b61044d565b34801561022257600080fd5b506101ce610590565b34801561023757600080fd5b506102016102463660046119b5565b610655565b34801561025757600080fd5b50610201610819565b34801561026c57600080fd5b50610275610938565b6040516001600160a01b0390911681526020016101d8565b34801561029957600080fd5b507f3c344650e40c6608a176dc19a4b7c111d92b7e4d03081787ac55837ca120d11b54600160a01b90046bffffffffffffffffffffffff166101ce565b3480156102e257600080fd5b506102016102f136600461185e565b61096b565b6001600160a01b037f00000000000000000000000000000000000000000000000000000000000000001630036103885760405162461bcd60e51b815260206004820152602c60248201527f46756e6374696f6e206d7573742062652063616c6c6564207468726f7567682060448201526b19195b1959d85d1958d85b1b60a21b60648201526084015b60405180910390fd5b7f00000000000000000000000000000000000000000000000000000000000000006001600160a01b03166103ba610a94565b6001600160a01b0316146104255760405162461bcd60e51b815260206004820152602c60248201527f46756e6374696f6e206d7573742062652063616c6c6564207468726f7567682060448201526b6163746976652070726f787960a01b606482015260840161037f565b61042e81610abc565b6040805160008082526020820190925261044a91839190610ac8565b50565b6001600160a01b037f00000000000000000000000000000000000000000000000000000000000000001630036104da5760405162461bcd60e51b815260206004820152602c60248201527f46756e6374696f6e206d7573742062652063616c6c6564207468726f7567682060448201526b19195b1959d85d1958d85b1b60a21b606482015260840161037f565b7f00000000000000000000000000000000000000000000000000000000000000006001600160a01b031661050c610a94565b6001600160a01b0316146105775760405162461bcd60e51b815260206004820152602c60248201527f46756e6374696f6e206d7573742062652063616c6c6564207468726f7567682060448201526b6163746976652070726f787960a01b606482015260840161037f565b61058082610abc565b61058c82826001610ac8565b5050565b6000306001600160a01b037f000000000000000000000000000000000000000000000000000000000000000016146106305760405162461bcd60e51b815260206004820152603860248201527f555550535570677261646561626c653a206d757374206e6f742062652063616c60448201527f6c6564207468726f7567682064656c656761746563616c6c0000000000000000606482015260840161037f565b507f360894a13ba1a3210667c828492db98dca3e2076cc3735a920a3ca505d382bbc90565b61069e6106628486611a7a565b83838080601f016020809104026020016040519081016040528093929190818152602001838380828437600092019190915250610c6d92505050565b6106a6610f11565b60005b63ffffffff81168411156108125784848263ffffffff168181106106cf576106cf611b49565b90506020028101906106e19190611b5f565b6020013547101561075a5760405162461bcd60e51b815260206004820152602c60248201527f536d61727457616c6c65743a20696e73756666696369656e742062617365206160448201527f737365742062616c616e63650000000000000000000000000000000000000000606482015260840161037f565b61080085858363ffffffff1681811061077557610775611b49565b90506020028101906107879190611b5f565b61079590602081019061185e565b86868463ffffffff168181106107ad576107ad611b49565b90506020028101906107bf9190611b5f565b6020013587878563ffffffff168181106107db576107db611b49565b90506020028101906107ed9190611b5f565b6107fb906040810190611b7f565b610f86565b8061080a81611bdc565b9150506106a9565b5050505050565b600054610100900460ff16158080156108395750600054600160ff909116105b806108535750303b158015610853575060005460ff166001145b6108c55760405162461bcd60e51b815260206004820152602e60248201527f496e697469616c697a61626c653a20636f6e747261637420697320616c72656160448201527f647920696e697469616c697a6564000000000000000000000000000000000000606482015260840161037f565b6000805460ff1916600117905580156108e8576000805461ff0019166101001790555b6108f0611045565b801561044a576000805461ff0019169055604051600181527f7f26b83ff96e1f2b6a682f133852f6798a09c465da95921460cefb38474024989060200160405180910390a150565b60007f3c344650e40c6608a176dc19a4b7c111d92b7e4d03081787ac55837ca120d11b5b546001600160a01b0316919050565b600054610100900460ff161580801561098b5750600054600160ff909116105b806109a55750303b1580156109a5575060005460ff166001145b610a175760405162461bcd60e51b815260206004820152602e60248201527f496e697469616c697a61626c653a20636f6e747261637420697320616c72656160448201527f647920696e697469616c697a6564000000000000000000000000000000000000606482015260840161037f565b6000805460ff191660011790558015610a3a576000805461ff0019166101001790555b610a42611045565b610a4b826110ee565b801561058c576000805461ff0019169055604051600181527f7f26b83ff96e1f2b6a682f133852f6798a09c465da95921460cefb38474024989060200160405180910390a15050565b60007f360894a13ba1a3210667c828492db98dca3e2076cc3735a920a3ca505d382bbc61095c565b33301461044a57600080fd5b7f4910fdfa16fed3260ed0e7147f7cc6da11a60208b5b9406d12a635614ffd91435460ff1615610b0057610afb836111b5565b505050565b826001600160a01b03166352d1902d6040518163ffffffff1660e01b8152600401602060405180830381865afa925050508015610b5a575060408051601f3d908101601f19168201909252610b5791810190611bff565b60015b610bcc5760405162461bcd60e51b815260206004820152602e60248201527f45524331393637557067726164653a206e657720696d706c656d656e7461746960448201527f6f6e206973206e6f742055555053000000000000000000000000000000000000606482015260840161037f565b7f360894a13ba1a3210667c828492db98dca3e2076cc3735a920a3ca505d382bbc8114610c615760405162461bcd60e51b815260206004820152602960248201527f45524331393637557067726164653a20756e737570706f727465642070726f7860448201527f6961626c65555549440000000000000000000000000000000000000000000000606482015260840161037f565b50610afb838383611259565b60008082806020019051810190610c849190611c3c565b915091506000610e6782610e617f7b253295b5dfff9d0fc334143cf4781476ceb0801f093453e989c297bcb5da46610cbb89611284565b7f3c344650e40c6608a176dc19a4b7c111d92b7e4d03081787ac55837ca120d11b54600160a01b90046bffffffffffffffffffffffff16604080516020810194909452830191909152606082015246608082015260a0810187905260c00160405160208183030381529060405280519060200120610e0b87604080518082018252600b81526a1150d114d055d85b1b195d60aa1b602091820152815180830183526005815264302e302e3160d81b9082015281517f8b73c3c69bb8fe3d512ecc4cf759cc79239f7b179b0ffacaa9a75d522b39400f818301527fa493ff226186ed9712809d71f428d7f274876a4f2b9236f1762ec84b059ae32b818401527fae209a0b48f21c054280f2455d32cf309387644879d9acbd8ffc199163811885606082015260808101939093523060a0808501919091528251808503909101815260c0909301909152815191012090565b604080517f19010000000000000000000000000000000000000000000000000000000000006020808301919091526022820193909352604280820194909452815180820390940184526062019052815191012090565b90611402565b90506001600160a01b0381167f3c344650e40c6608a176dc19a4b7c111d92b7e4d03081787ac55837ca120d11b546001600160a01b0316146108125760405162461bcd60e51b815260206004820152602760248201527f454344534157616c6c65743a206661696c656420746f2076657269667920736960448201527f676e617475726500000000000000000000000000000000000000000000000000606482015260840161037f565b7f3c344650e40c6608a176dc19a4b7c111d92b7e4d03081787ac55837ca120d11b8054600160a01b90046bffffffffffffffffffffffff16906014610f5583611cbf565b91906101000a8154816bffffffffffffffffffffffff02191690836bffffffffffffffffffffffff16021790555050565b600080856001600160a01b0316858585604051610fa4929190611ce0565b60006040518083038185875af1925050503d8060008114610fe1576040519150601f19603f3d011682016040523d82523d6000602084013e610fe6565b606091505b5091509150856001600160a01b03167f202ca0633e9bf52b1d9ffc5784badd7db89fdd8a05bea524c99853429017f7ae86868660405161102893929190611cf0565b60405180910390a28161103d57805160208201fd5b505050505050565b600054610100900460ff166110b05760405162461bcd60e51b815260206004820152602b60248201527f496e697469616c697a61626c653a20636f6e7472616374206973206e6f74206960448201526a6e697469616c697a696e6760a81b606482015260840161037f565b47156110ec5760405147815233907f3317af6e3247959c45cb6051f9153437a9072683e21eda1f9b52c5bcec0e89c29060200160405180910390a25b565b600054610100900460ff166111595760405162461bcd60e51b815260206004820152602b60248201527f496e697469616c697a61626c653a20636f6e7472616374206973206e6f74206960448201526a6e697469616c697a696e6760a81b606482015260840161037f565b807f3c344650e40c6608a176dc19a4b7c111d92b7e4d03081787ac55837ca120d11b5b80547fffffffffffffffffffffffff0000000000000000000000000000000000000000166001600160a01b039290921691909117905550565b6001600160a01b0381163b6112325760405162461bcd60e51b815260206004820152602d60248201527f455243313936373a206e657720696d706c656d656e746174696f6e206973206e60448201527f6f74206120636f6e747261637400000000000000000000000000000000000000606482015260840161037f565b807f360894a13ba1a3210667c828492db98dca3e2076cc3735a920a3ca505d382bbc61117c565b61126283611426565b60008251118061126f5750805b15610afb5761127e8383611466565b50505050565b600080825167ffffffffffffffff8111156112a1576112a1611879565b6040519080825280602002602001820160405280156112ca578160200160208202803683370190505b50905060005b83518110156113d2577f8de9c86fbdd52e2efe5d4e29fd947a8389e0d8945fed5eef2d0dff9745e601c784828151811061130c5761130c611b49565b60200260200101516000015185838151811061132a5761132a611b49565b60200260200101516020015186848151811061134857611348611b49565b6020026020010151604001518051906020012060405160200161138d94939291909384526001600160a01b039290921660208401526040830152606082015260800190565b604051602081830303815290604052805190602001208282815181106113b5576113b5611b49565b6020908102919091010152806113ca81611d26565b9150506112d0565b50806040516020016113e49190611d3f565b60405160208183030381529060405280519060200120915050919050565b60008060006114118585611571565b9150915061141e816115b6565b509392505050565b61142f816111b5565b6040516001600160a01b038216907fbc7cd75a20ee27fd9adebab32041f755214dbc6bffa90cc0225b39da2e5c2d3b90600090a250565b60606001600160a01b0383163b6114e55760405162461bcd60e51b815260206004820152602660248201527f416464726573733a2064656c65676174652063616c6c20746f206e6f6e2d636f60448201527f6e74726163740000000000000000000000000000000000000000000000000000606482015260840161037f565b600080846001600160a01b0316846040516115009190611d75565b600060405180830381855af49150503d806000811461153b576040519150601f19603f3d011682016040523d82523d6000602084013e611540565b606091505b50915091506115688282604051806060016040528060278152602001611dd16027913961171b565b95945050505050565b60008082516041036115a75760208301516040840151606085015160001a61159b8782858561173b565b945094505050506115af565b506000905060025b9250929050565b60008160048111156115ca576115ca611d87565b036115d25750565b60018160048111156115e6576115e6611d87565b036116335760405162461bcd60e51b815260206004820152601860248201527f45434453413a20696e76616c6964207369676e61747572650000000000000000604482015260640161037f565b600281600481111561164757611647611d87565b036116945760405162461bcd60e51b815260206004820152601f60248201527f45434453413a20696e76616c6964207369676e6174757265206c656e67746800604482015260640161037f565b60038160048111156116a8576116a8611d87565b0361044a5760405162461bcd60e51b815260206004820152602260248201527f45434453413a20696e76616c6964207369676e6174757265202773272076616c60448201527f7565000000000000000000000000000000000000000000000000000000000000606482015260840161037f565b6060831561172a575081611734565b61173483836117ff565b9392505050565b6000807f7fffffffffffffffffffffffffffffff5d576e7357a4501ddfe92f46681b20a083111561177257506000905060036117f6565b6040805160008082526020820180845289905260ff881692820192909252606081018690526080810185905260019060a0016020604051602081039080840390855afa1580156117c6573d6000803e3d6000fd5b5050604051601f1901519150506001600160a01b0381166117ef576000600192509250506117f6565b9150600090505b94509492505050565b81511561180f5781518083602001fd5b8060405162461bcd60e51b815260040161037f9190611d9d565b60006020828403121561183b57600080fd5b5035919050565b80356001600160a01b038116811461185957600080fd5b919050565b60006020828403121561187057600080fd5b61173482611842565b634e487b7160e01b600052604160045260246000fd5b6040516060810167ffffffffffffffff811182821017156118b2576118b2611879565b60405290565b604051601f8201601f1916810167ffffffffffffffff811182821017156118e1576118e1611879565b604052919050565b600067ffffffffffffffff82111561190357611903611879565b50601f01601f191660200190565b600082601f83011261192257600080fd5b8135611935611930826118e9565b6118b8565b81815284602083860101111561194a57600080fd5b816020850160208301376000918101602001919091529392505050565b6000806040838503121561197a57600080fd5b61198383611842565b9150602083013567ffffffffffffffff81111561199f57600080fd5b6119ab85828601611911565b9150509250929050565b600080600080604085870312156119cb57600080fd5b843567ffffffffffffffff808211156119e357600080fd5b818701915087601f8301126119f757600080fd5b813581811115611a0657600080fd5b8860208260051b8501011115611a1b57600080fd5b602092830196509450908601359080821115611a3657600080fd5b818701915087601f830112611a4a57600080fd5b813581811115611a5957600080fd5b886020828501011115611a6b57600080fd5b95989497505060200194505050565b600067ffffffffffffffff80841115611a9557611a95611879565b8360051b6020611aa68183016118b8565b868152918501918181019036841115611abe57600080fd5b865b84811015611b3d57803586811115611ad85760008081fd5b88016060368290031215611aec5760008081fd5b611af461188f565b611afd82611842565b8152858201358682015260408083013589811115611b1b5760008081fd5b611b2736828601611911565b9183019190915250845250918301918301611ac0565b50979650505050505050565b634e487b7160e01b600052603260045260246000fd5b60008235605e19833603018112611b7557600080fd5b9190910192915050565b6000808335601e19843603018112611b9657600080fd5b83018035915067ffffffffffffffff821115611bb157600080fd5b6020019150368190038213156115af57600080fd5b634e487b7160e01b600052601160045260246000fd5b600063ffffffff808316818103611bf557611bf5611bc6565b6001019392505050565b600060208284031215611c1157600080fd5b5051919050565b60005b83811015611c33578181015183820152602001611c1b565b50506000910152565b60008060408385031215611c4f57600080fd5b82519150602083015167ffffffffffffffff811115611c6d57600080fd5b8301601f81018513611c7e57600080fd5b8051611c8c611930826118e9565b818152866020838501011115611ca157600080fd5b611cb2826020830160208601611c18565b8093505050509250929050565b60006bffffffffffffffffffffffff808316818103611bf557611bf5611bc6565b8183823760009101908152919050565b83815260406020820152816040820152818360608301376000818301606090810191909152601f909201601f1916010192915050565b600060018201611d3857611d38611bc6565b5060010190565b815160009082906020808601845b83811015611d6957815185529382019390820190600101611d4d565b50929695505050505050565b60008251611b75818460208701611c18565b634e487b7160e01b600052602160045260246000fd5b6020815260008251806020840152611dbc816040850160208701611c18565b601f01601f1916919091016040019291505056fe416464726573733a206c6f772d6c6576656c2064656c65676174652063616c6c206661696c6564a2646970667358221220f03e5cc868134b5a7a3faa9ffc61446c2d95ad64929442119897229daa3ec64164736f6c63430008110033",
  "devdoc": {
    "kind": "dev",
    "methods": {},
    "version": 1
  },
  "userdoc": {
    "kind": "user",
    "methods": {},
    "version": 1
  },
  "storageLayout": {
    "storage": [
      {
        "astId": 3533,
        "contract": "contracts/ECDSAWalletFactory.sol:ECDSAWalletFactory",
        "label": "factory",
        "offset": 0,
        "slot": "0",
        "type": "t_contract(SmartWalletFactory)3999"
      },
      {
        "astId": 3536,
        "contract": "contracts/ECDSAWalletFactory.sol:ECDSAWalletFactory",
        "label": "wallet",
        "offset": 0,
        "slot": "1",
        "type": "t_contract(ECDSAWallet)3526"
      }
    ],
    "types": {
      "t_contract(ECDSAWallet)3526": {
        "encoding": "inplace",
        "label": "contract ECDSAWallet",
        "numberOfBytes": "20"
      },
      "t_contract(SmartWalletFactory)3999": {
        "encoding": "inplace",
        "label": "contract SmartWalletFactory",
        "numberOfBytes": "20"
      }
    }
  }
}